S014000043756261736552656D6F74652E7372656351
S113000064C098C07DC03AC47BC07AC079C078C04F
S113001077C076C075C074C073C072C071C070C040
S11300206FC06EC06DC0050C0901A10185011900E6
S11300302A3C021500263C02950175108100C0057A
S1130040010906A1018502050719E029E715002524
S11300500175019508810295017508256519002926
S1130060658100C0090222000101008032090400F8
S1130070000103000000092101010001223E0007E4
S113008005810308000A1201100100000008C016CF
S1130090DB270001010200011C034300750062001C
S11300A06100730065002000720065006D006F0040
S11300B074006500120356006C00610064002000A7
S11300C05400680074000403090411241FBECFE522
S11300D0D4E0DEBFCDBF10E0A0E6B0E0E6ECF8E08F
S11300E002C005900D92A63FB107D9F721E0A6EF13
S11300F0B0E001C01D92A633B207E1F722D2E1C3FA
S11301007FCFA82FB92F80E090E041E050EA6095BE
S113011030E009C02D9182279795879510F08427A8
S11301209527305EC8F36F5FA8F30895EADF8D93D7
S11301309D930895CF93CFB7CF93DF93C395849BBB
S1130140E9F7849B0BC0849B09C0849B07C0849BF4
S113015005C0849B03C0849B01C08BC06F93C09176
S11301601901DD27C05EDE4F2F9365E5849B03C034
S11301702F916F91E6CF0F931F934F9320E040E1AF
S11301805F9300B3047104FB27F93F9350E03BE015
S113019039C0147140642F77012F5F5F1EC040681F
S11301A010B314712F7752501FC0406400B32F77DF
S11301B00471D1F15F5F00C023C0406210B32F7798
S11301C0147191F15F5F00C025C004711027515074
S11301D012F45D5F0000115027952C3F10B3C8F650
S11301E014710127015027952C3FC8F642274993E3
S11301F000B3047110274F73115027952C3FA8F6B4
S11302004695469510B3147179F00127015027954E
S11302102C3F98F66B5A60F3315000B3B0F600C02F
S113022010E41ABF002719C03B503195C31BD040BE
S113023010E41ABF0881033C09F10B34F9F0209152
S113024017011981110F1213EDCF4A81441F09368A
S113025051F10D3211F0013E29F700931E013F9137
S11302605F914F911F910F912F916F91CAB7C6FD66
S113027065CFDF91CF91CFBFCF91189520911E010B
S1130280222369F310911C01112391F5343092F16A
S113029030931C0120931801109119013BE0311B8C
S11302A03093190127C000911C0101300CF50AE5B7
S11302B04F7049F43091CA0034FD1DC00093CA0048
S11302C0C0E0D1E01CC030910B0134FD14C0009398
S11302D00B01CCE0D1E013C0052710E000C0000002
S11302E002BB1AC0052710E0221F1DC010E021C068
S11302F04AE502C032ED432FC4E1D0E032E011B34D
S11303001461949A02B311BB54E120E865E320FF21
S1130310052702BB279517951C3FF0F66695B8F79D
S1130320B1F720FF052702BB279517951C3FD0F690
S11303302795179517FF052700001C3F02BBB0F651
S113034029913A9519F70B7E10911D01110FC65191
S1130350D04002BB11F01093170110E41ABF0061E2
S113036011B31B7E402F4B7E54E05A95F1F702BB2C
S113037011BB42BB74CF84B3807C84BB85B38F63D1
S113038085BBB898C09A0895A0E6B0E080E090E0FC
S11303904AE051E0ED91FC911197308112962C9135
S11303A012972323489FF001499FF00D1124E05A2E
S11303B0FF4F3681231719F01382178211C037813A
S11303C031110EC0638114963C911497631728F081
S11303D0358135273583578303C033813F5F3383AA
S11303E0489FF001499FF00D1124E05AFF4F2683E6
S11303F001961A968730910569F608952AE0829F3E
S1130400C0011124FC01E05AFF4F958181E0892746
S11304100895B1DF32C0CF93DF93B6DF37D0C6EA99
S1130420D0E08881EBDF9981913029F42B8121116F
S113043002C081119C838B83259680E0C93CD80738
S113044081F7DF91CF910895E6EAF0E080E090E053
S11304502481222359F025E0289FF001299FF00DE3
S11304601124EA55FF4F148282810895019635962E
S11304708730910569F780E0089581B38F7381BB5C
S113048082B3806C82BB1092FF00089580B386FB18
S1130490222720F9879922609091F600892F837092
S11304A0281791F034E0939FC0011124822B80938C
S11304B0F6001092FF00813E11F481E003C0823DFA
S11304C019F482E08093FF0008958091FF0008955D
S11304D0E7EFF0E092E090831092F80082830895B1
S11304E0FC0180818076803251F581818130C1F4B4
S11304F08281813049F48093FA001092FC001092BA
S1130500FB008AEF90E006C08230C9F480E0E0DFAF
S113051087EF90E090931B0180931A0183E0089584
S1130520823041F48DEF90E090931B0180931A0187
S113053081E008958A3019F483818093FD0080E07E
S1130540089585D166DF8C9A80E0815039F0EFE917
S1130550FFE03197F1F700C00000F7CF8C9884D109
S11305607894C0E0D1E009EE10E082EEE82EF12CA0
S11305709AEEC92ED12C65D04EDF80910B0184FFF9
S1130580FACFA3DF813051F020F1823071F4D0939F
S1130590FA00D092FC00C092FB0016C08093FA00CF
S11305A01093FC000093FB000FC08111E4CFC11134
S11305B024C04ADF8823C9F0823EC1F4D093FA00F4
S11305C0F092FC00E092FB0063E08AEF90E017D029
S11305D014C0CC2371F3D093FA001092FC00109253
S11305E0FB0063E08AEF90E005C080E071DF63E028
S11305F087EF90E004D0C0E0BECFC1E0BCCFCF9382
S1130600C62F20910B0124FF0BC030910C0128E868
S1130610232720930C01FC01ADE0B1E08C2F04C032
S11306202AE520930B01F7CF91919D938150E1F737
S11306306C2F8DE091E07ADDCC5FC0930B01CF91FC
S11306400895CF93DF9380911C01835087FDA3C04D
S1130650909118019D3209F09CC0883009F099C02E
S113066080911901CCE0D0E0C81BD109C05EDE4FF7
S113067083EC809300018AE58093CA001092FE0007
S11306808881807619F0CE012BDF7AC09A8110928E
S113069009018981811106C010920A0129E031E023
S11306A082E06AC0853019F490931D0162C08630DF
S11306B009F049C08B81813019F486E890E01AC0B2
S11306C0823041F484E690E090931B0180931A01F8
S11306D082E235C08330F1F4911108C086EC90E0D9
S11306E090931B0180931A0184E029C0913041F456
S11306F084EB90E090931B0180931A0182E11FC068
S11307009230E1F488E990E090931B0180931A0100
S11307108CE115C0813241F486E790E090931B018F
S113072080931A0189E00BC0823241F486E290E0A2
S113073090931B0180931A018EE301C080E090E442
S11307409093FE001DC0883069F0893019F49093AD
S11307501F010FC08A3049F08B3059F48BE4809329
S11307600C0107C02FE131E002C029E031E081E053
S113077003C029E031E080E030931B0120931A018B
S11307809F81911104C09E81981708F4892F80934A
S1130790C90010921C018091CA0084FF4BC0809153
S11307A0C9008F3F09F446C0C82F893008F0C8E05B
S11307B08C1B8093C9009091000188E8892780935D
S11307C00001CC2359F180911A0190911B012091D1
S11307D0FE0026FF12C0A0E0B1E02C2FAC01405077
S11307E05140FA01EA0FFB1FE4911196EC93119723
S11307F0215011962111F5CF08C0E1E0F1E0DC01B0
S11308002C2F3D9131932150E1F701962FEF2C0FBE
S1130810820F911D90931B0180931A016C2F81E02C
S113082091E084DCCC5FCC3019F08FEF8093C90069
S1130830C093CA0084E190B3947131F48150D9F724
S113084010921D0110921701DF91CF91089585B781
S1130850826085BF8BB780648BBFEBE0F1E08BE4F3
S113086081838AE58083089587E085BD85B58860A6
S113087085BD8BE983BD80E889BF08951F920F92DF
S11308800FB60F9211242F933F934F935F936F935F
S11308907F938F939F93AF93BF93EF93FF9374DDF5
S11308A0FF91EF91BF91AF919F918F917F916F9144
S11308B05F914F913F912F910F900FBE0F901F901A
S10908C01895F894FFCF27
S11308C6330001000A010101CB00330002000A01D2
S11308D60201D000330004000A010401D5003300EC
S11308E608000A010801DA00330010000A011001A9
S11308F6DF00330020000A012001E4003600010075
S11309060A010101E900000100FF00010100FF00E6
S1130916020155FF00030116FF00040154FF000500
S1130926012CFF000601E2FF00FF5A42544E31003B
S113093642544E320042544E330042544E34004226
S1130946544E350042544E360042544E5F454E4393
S10909564F44455200006D
S9030000FC
